{
  "contractName": "Fir",
  "abi": [
    {
      "constant": true,
      "inputs": [],
      "name": "name",
      "outputs": [
        {
          "name": "",
          "type": "string"
        }
      ],
      "payable": false,
      "stateMutability": "view",
      "type": "function"
    },
    {
      "constant": true,
      "inputs": [],
      "name": "accountCount",
      "outputs": [
        {
          "name": "",
          "type": "uint256"
        }
      ],
      "payable": false,
      "stateMutability": "view",
      "type": "function"
    },
    {
      "inputs": [],
      "payable": false,
      "stateMutability": "nonpayable",
      "type": "constructor"
    },
    {
      "constant": false,
      "inputs": [
        {
          "name": "_nid",
          "type": "string"
        },
        {
          "name": "_firstName",
          "type": "string"
        },
        {
          "name": "_lastName",
          "type": "string"
        },
        {
          "name": "_content",
          "type": "string"
        }
      ],
      "name": "addFir",
      "outputs": [],
      "payable": false,
      "stateMutability": "nonpayable",
      "type": "function"
    }
  ],
  "bytecode": "0x6080604052600060015534801561001557600080fd5b506040805190810160405280600581526020017f53616a696200000000000000000000000000000000000000000000000000000081525060009080519060200190610061929190610067565b5061010c565b828054600181600116156101000203166002900490600052602060002090601f016020900481019282601f106100a857805160ff19168380011785556100d6565b828001600101855582156100d6579182015b828111156100d55782518255916020019190600101906100ba565b5b5090506100e391906100e7565b5090565b61010991905b808211156101055760008160009055506001016100ed565b5090565b90565b6106238061011b6000396000f3fe608060405260043610610057576000357c0100000000000000000000000000000000000000000000000000000000900463ffffffff16806306fdde031461005c578063317b992a146100ec578063e4af29fc14610379575b600080fd5b34801561006857600080fd5b506100716103a4565b6040518080602001828103825283818151815260200191508051906020019080838360005b838110156100b1578082015181840152602081019050610096565b50505050905090810190601f1680156100de5780820380516001836020036101000a031916815260200191505b509250505060405180910390f35b3480156100f857600080fd5b506103776004803603608081101561010f57600080fd5b810190808035906020019064010000000081111561012c57600080fd5b82018360208201111561013e57600080fd5b8035906020019184600183028401116401000000008311171561016057600080fd5b91908080601f016020809104026020016040519081016040528093929190818152602001838380828437600081840152601f19601f820116905080830192505050505050509192919290803590602001906401000000008111156101c357600080fd5b8201836020820111156101d557600080fd5b803590602001918460018302840111640100000000831117156101f757600080fd5b91908080601f016020809104026020016040519081016040528093929190818152602001838380828437600081840152601f19601f8201169050808301925050505050505091929192908035906020019064010000000081111561025a57600080fd5b82018360208201111561026c57600080fd5b8035906020019184600183028401116401000000008311171561028e57600080fd5b91908080601f016020809104026020016040519081016040528093929190818152602001838380828437600081840152601f19601f820116905080830192505050505050509192919290803590602001906401000000008111156102f157600080fd5b82018360208201111561030357600080fd5b8035906020019184600183028401116401000000008311171561032557600080fd5b91908080601f016020809104026020016040519081016040528093929190818152602001838380828437600081840152601f19601f820116905080830192505050505050509192919290505050610442565b005b34801561038557600080fd5b5061038e61054c565b6040518082815260200191505060405180910390f35b60008054600181600116156101000203166002900480601f01602080910402602001604051908101604052809291908181526020018280546001816001161561010002031660029004801561043a5780601f1061040f5761010080835404028352916020019161043a565b820191906000526020600020905b81548152906001019060200180831161041d57829003601f168201915b505050505081565b608060405190810160405280858152602001848152602001838152602001828152506002856040518082805190602001908083835b60208310151561049c5780518252602082019150602081019050602083039250610477565b6001836020036101000a038019825116818451168082178552505050505050905001915050908152602001604051809103902060008201518160000190805190602001906104eb929190610552565b506020820151816001019080519060200190610508929190610552565b506040820151816002019080519060200190610525929190610552565b506060820151816003019080519060200190610542929190610552565b5090505050505050565b60015481565b828054600181600116156101000203166002900490600052602060002090601f016020900481019282601f1061059357805160ff19168380011785556105c1565b828001600101855582156105c1579182015b828111156105c05782518255916020019190600101906105a5565b5b5090506105ce91906105d2565b5090565b6105f491905b808211156105f05760008160009055506001016105d8565b5090565b9056fea165627a7a72305820378b56600ab6263e52f54b8cd13637786b6b4be265be57a6cc1404da9135e02c0029",
  "source": "pragma solidity ^0.5.0;\r\n\r\n/**\r\n * The fir contract does this and that...\r\n */\r\ncontract Fir {\r\n\r\n\tstring public name;\r\n\tuint public accountCount = 0;\r\n\r\n\tstruct FirContent {\r\n\t\tstring nid;\r\n\t\tstring firstName;\r\n\t\tstring lastName;\r\n\t\tstring content;\r\n\t}\r\n\r\n\tmapping (string => FirContent) firs;\r\n\r\n\tfunction addFir(string memory _nid, string memory _firstName, string memory _lastName, string memory _content) public {\r\n\t\tfirs[_nid] = FirContent({\r\n\t\t\tnid: _nid,\r\n\t\t\tfirstName: _firstName,\r\n\t\t\tlastName: _lastName,\r\n\t\t\tcontent: _content\r\n\t\t});\r\n\t}\r\n\r\n\r\n\t\r\n\tconstructor() public {\r\n\t\tname = \"Sajib\"; \r\n\t}\r\n\t\r\n}\r\n",
  "sourcePath": "E:/ZFir/src/contracts/FIR.sol",
  "compiler": {
    "name": "solc",
    "version": "0.5.0+commit.1d4f565a.Emscripten.clang"
  },
  "schemaVersion": "3.0.2",
  "updatedAt": "2021-01-19T23:56:37.281Z",
  "devdoc": {
    "methods": {}
  },
  "userdoc": {
    "methods": {},
    "notice": "The fir contract does this and that...\r"
  }
}